{
  "contractName": "Logger",
  "abi": [
    {
      "anonymous": false,
      "inputs": [
        {
          "indexed": false,
          "internalType": "uint256",
          "name": "val",
          "type": "uint256"
        }
      ],
      "name": "ValueSet",
      "type": "event"
    },
    {
      "constant": true,
      "inputs": [
        {
          "internalType": "uint256",
          "name": "",
          "type": "uint256"
        }
      ],
      "name": "log",
      "outputs": [
        {
          "internalType": "uint256",
          "name": "",
          "type": "uint256"
        }
      ],
      "payable": false,
      "stateMutability": "view",
      "type": "function"
    },
    {
      "constant": false,
      "inputs": [
        {
          "internalType": "uint256",
          "name": "x",
          "type": "uint256"
        }
      ],
      "name": "logMessage",
      "outputs": [],
      "payable": false,
      "stateMutability": "nonpayable",
      "type": "function"
    },
    {
      "constant": true,
      "inputs": [],
      "name": "getLog",
      "outputs": [
        {
          "internalType": "uint256",
          "name": "",
          "type": "uint256"
        }
      ],
      "payable": false,
      "stateMutability": "view",
      "type": "function"
    }
  ],
  "bytecode": "0x608060405260006103e85560006103e95534801561001c57600080fd5b5061016f8061002c6000396000f3fe608060405234801561001057600080fd5b50600436106100415760003560e01c8063909e4ab614610046578063c3888c5314610064578063f82c50f114610092575b600080fd5b61004e6100d4565b6040518082815260200191505060405180910390f35b6100906004803603602081101561007a57600080fd5b81019080803590602001909291905050506100df565b005b6100be600480360360208110156100a857600080fd5b8101908080359060200190929190505050610121565b6040518082815260200191505060405180910390f35b60006103e954905090565b806103e9819055507f012c78e2b84325878b1bd9d250d772cfe5bda7722d795f45036fa5e1e6e303fc816040518082815260200191505060405180910390a150565b6000816103e8811061012f57fe5b01600091509050548156fea265627a7a72315820acd7be086ba1be2b11a52d30db2f542ff2949d101dce44a2724f3935ef4732ac64736f6c63430005100032",
  "source": "pragma solidity >=0.4.25 <0.6.0;\r\n//pragma experimental ABIEncoderV2;\r\n\r\ncontract Logger {\r\n\r\n    uint [1000] public log;\r\n    uint currentindex = 0;\r\n    event ValueSet(uint val);\r\n    uint storedData = 0;\r\n\r\n//    constructor() public{\r\n//        log[currentindex] = 1;\r\n//        currentindex++;\r\n//    }\r\n    function logMessage(uint x) public{\r\n        storedData = x;\r\n        emit ValueSet(x);\r\n    }\r\n    function getLog() public view returns(uint){\r\n        return storedData;\r\n    }\r\n//    function logMessage(uint newMessage) public{\r\n//        log[currentindex] = newMessage;\r\n//        currentindex++;\r\n//\r\n//    }\r\n//    function getLog() public view returns (uint[1000] memory){\r\n//        return log;\r\n//    }\r\n}\r\n",
  "sourcePath": "C:/Users/x220/Desktop/doubletruffle/contracts/Logger.sol",
  "compiler": {
    "name": "solc",
    "version": "0.5.16+commit.9c3226ce.Emscripten.clang"
  },
  "schemaVersion": "3.4.0",
  "updatedAt": "2021-04-29T17:20:32.437Z",
  "networkType": "ethereum",
  "devdoc": {
    "methods": {}
  },
  "userdoc": {
    "methods": {}
  }
}