{
  "contractName": "Logger",
  "abi": [
    {
      "constant": true,
      "inputs": [
        {
          "internalType": "uint256",
          "name": "",
          "type": "uint256"
        }
      ],
      "name": "log",
      "outputs": [
        {
          "internalType": "uint256",
          "name": "",
          "type": "uint256"
        }
      ],
      "payable": false,
      "stateMutability": "view",
      "type": "function"
    },
    {
      "constant": false,
      "inputs": [
        {
          "internalType": "uint256",
          "name": "x",
          "type": "uint256"
        }
      ],
      "name": "logMessage",
      "outputs": [],
      "payable": false,
      "stateMutability": "nonpayable",
      "type": "function"
    },
    {
      "constant": true,
      "inputs": [],
      "name": "getLog",
      "outputs": [
        {
          "internalType": "uint256",
          "name": "",
          "type": "uint256"
        }
      ],
      "payable": false,
      "stateMutability": "view",
      "type": "function"
    }
  ],
  "bytecode": "0x608060405260006103e85534801561001657600080fd5b506101ab806100266000396000f3fe608060405234801561001057600080fd5b50600436106100415760003560e01c8063909e4ab614610046578063c3888c5314610064578063f82c50f114610080575b600080fd5b61004e6100b0565b60405161005b919061012c565b60405180910390f35b61007e600480360361007991908101906100f4565b6100bb565b005b61009a600480360361009591908101906100f4565b6100c6565b6040516100a7919061012c565b60405180910390f35b60006103e954905090565b806103e98190555050565b6000816103e881106100d457fe5b016000915090505481565b6000813590506100ee81610151565b92915050565b60006020828403121561010657600080fd5b6000610114848285016100df565b91505092915050565b61012681610147565b82525050565b6000602082019050610141600083018461011d565b92915050565b6000819050919050565b61015a81610147565b811461016557600080fd5b5056fea365627a7a72315820edf916bd16a08261c9702e62476fa367f6ae6eec8e8b91285967b801b35acf1f6c6578706572696d656e74616cf564736f6c63430005100040",
  "source": "pragma solidity >=0.4.25 <0.6.0;\r\npragma experimental ABIEncoderV2;\r\n\r\ncontract Logger {\r\n\r\n    uint [1000] public log;\r\n    uint currentindex = 0;\r\n    uint storedData;\r\n\r\n//    constructor() public{\r\n//        log[currentindex] = 1;\r\n//        currentindex++;\r\n//    }\r\n    function logMessage(uint x) public{\r\n        storedData = x;\r\n    }\r\n    function getLog() public view returns(uint){\r\n        return storedData;\r\n    }\r\n//    function logMessage(uint newMessage) public{\r\n//        log[currentindex] = newMessage;\r\n//        currentindex++;\r\n//\r\n//    }\r\n//    function getLog() public view returns (uint[1000] memory){\r\n//        return log;\r\n//    }\r\n}\r\n",
  "sourcePath": "C:/Users/x220/Desktop/doubletruffle/contracts/Logger.sol",
  "compiler": {
    "name": "solc",
    "version": "0.5.16+commit.9c3226ce.Emscripten.clang"
  },
  "schemaVersion": "3.4.0",
  "updatedAt": "2021-04-29T06:49:57.116Z",
  "networkType": "ethereum",
  "devdoc": {
    "methods": {}
  },
  "userdoc": {
    "methods": {}
  }
}