{
  "contractName": "Logger",
  "abi": [
    {
      "inputs": [],
      "payable": false,
      "stateMutability": "nonpayable",
      "type": "constructor"
    },
    {
      "constant": true,
      "inputs": [
        {
          "internalType": "uint256",
          "name": "",
          "type": "uint256"
        }
      ],
      "name": "log",
      "outputs": [
        {
          "internalType": "string",
          "name": "",
          "type": "string"
        }
      ],
      "payable": false,
      "stateMutability": "view",
      "type": "function"
    },
    {
      "constant": false,
      "inputs": [
        {
          "internalType": "string",
          "name": "newMessage",
          "type": "string"
        }
      ],
      "name": "logMessage",
      "outputs": [],
      "payable": false,
      "stateMutability": "nonpayable",
      "type": "function"
    },
    {
      "constant": true,
      "inputs": [],
      "name": "getLog",
      "outputs": [
        {
          "internalType": "string[1000]",
          "name": "",
          "type": "string[1000]"
        }
      ],
      "payable": false,
      "stateMutability": "view",
      "type": "function"
    }
  ],
  "bytecode": "0x608060405260006103e85534801561001657600080fd5b506040518060400160405280600f81526020017f2d424547494e20454c454354494f4e000000000000000000000000000000000081525060006103e8546103e8811061005e57fe5b01908051906020019061007292919061008b565b506103e860008154809291906001019190505550610130565b828054600181600116156101000203166002900490600052602060002090601f016020900481019282601f106100cc57805160ff19168380011785556100fa565b828001600101855582156100fa579182015b828111156100f95782518255916020019190600101906100de565b5b509050610107919061010b565b5090565b61012d91905b80821115610129576000816000905550600101610111565b5090565b90565b6106c78061013f6000396000f3fe608060405234801561001057600080fd5b50600436106100415760003560e01c80637c99005214610046578063909e4ab614610062578063f82c50f114610080575b600080fd5b610060600480360361005b91908101906103b3565b6100b0565b005b61006a6100ed565b6040516100779190610518565b60405180910390f35b61009a600480360361009591908101906103f4565b6101cb565b6040516100a7919061053a565b60405180910390f35b8060006103e8546103e881106100c257fe5b0190805190602001906100d692919061027c565b506103e86000815480929190600101919050555050565b6100f56102fc565b60006103e880602002604051908101604052809291906000905b828210156101c2578382018054600181600116156101000203166002900480601f0160208091040260200160405190810160405280929190818152602001828054600181600116156101000203166002900480156101ae5780601f10610183576101008083540402835291602001916101ae565b820191906000526020600020905b81548152906001019060200180831161019157829003601f168201915b50505050508152602001906001019061010f565b50505050905090565b6000816103e881106101d957fe5b016000915090508054600181600116156101000203166002900480601f0160208091040260200160405190810160405280929190818152602001828054600181600116156101000203166002900480156102745780601f1061024957610100808354040283529160200191610274565b820191906000526020600020905b81548152906001019060200180831161025757829003601f168201915b505050505081565b828054600181600116156101000203166002900490600052602060002090601f016020900481019282601f106102bd57805160ff19168380011785556102eb565b828001600101855582156102eb579182015b828111156102ea5782518255916020019190600101906102cf565b5b5090506102f89190610325565b5090565b60405180617d0001604052806103e8905b606081526020019060019003908161030d5790505090565b61034791905b8082111561034357600081600090555060010161032b565b5090565b90565b600082601f83011261035b57600080fd5b813561036e61036982610589565b61055c565b9150808252602083016020830185838301111561038a57600080fd5b61039583828461061a565b50505092915050565b6000813590506103ad8161066d565b92915050565b6000602082840312156103c557600080fd5b600082013567ffffffffffffffff8111156103df57600080fd5b6103eb8482850161034a565b91505092915050565b60006020828403121561040657600080fd5b60006104148482850161039e565b91505092915050565b600061042983836104a6565b905092915050565b600061043c826105bf565b61044681856105e3565b935083602082028501610458856105b5565b8060005b858110156104945784840389528151610475858261041d565b9450610480836105d6565b925060208a0199505060018101905061045c565b50829750879550505050505092915050565b60006104b1826105cb565b6104bb81856105ee565b93506104cb818560208601610629565b6104d48161065c565b840191505092915050565b60006104ea826105cb565b6104f481856105ff565b9350610504818560208601610629565b61050d8161065c565b840191505092915050565b600060208201905081810360008301526105328184610431565b905092915050565b6000602082019050818103600083015261055481846104df565b905092915050565b6000604051905081810181811067ffffffffffffffff8211171561057f57600080fd5b8060405250919050565b600067ffffffffffffffff8211156105a057600080fd5b601f19601f8301169050602081019050919050565b6000819050919050565b60006103e89050919050565b600081519050919050565b6000602082019050919050565b600081905092915050565b600082825260208201905092915050565b600082825260208201905092915050565b6000819050919050565b82818337600083830152505050565b60005b8381101561064757808201518184015260208101905061062c565b83811115610656576000848401525b50505050565b6000601f19601f8301169050919050565b61067681610610565b811461068157600080fd5b5056fea365627a7a723158203eccbe798c75236b31d9c6649806234d734a1bb9229bb88766fdde147088a5b26c6578706572696d656e74616cf564736f6c63430005100040",
  "source": "pragma solidity >=0.4.25 <0.6.0;\r\npragma experimental ABIEncoderV2;\r\n\r\ncontract Logger {\r\n\r\n    string [1000] public log;\r\n    uint currentindex = 0;\r\n\r\n    constructor() public{\r\n        log[currentindex] = \"-BEGIN ELECTION\";\r\n        currentindex++;\r\n    }\r\n    function logMessage(string memory newMessage) public{\r\n        log[currentindex] = newMessage;\r\n        currentindex++;\r\n\r\n    }\r\n    function getLog() public view returns (string[1000] memory){\r\n        return log;\r\n    }\r\n}\r\n",
  "sourcePath": "C:/Users/x220/Desktop/doubletruffle/contracts/Logger.sol",
  "compiler": {
    "name": "solc",
    "version": "0.5.16+commit.9c3226ce.Emscripten.clang"
  },
  "schemaVersion": "3.4.0",
  "updatedAt": "2021-04-29T03:16:05.325Z",
  "networkType": "ethereum",
  "devdoc": {
    "methods": {}
  },
  "userdoc": {
    "methods": {}
  }
}